:100000000C9434000C9451000C9451000C94510049
:100010000C9451000C9451000C9451000C9451001C
:100020000C9451000C9451000C9451000C9451000C
:100030000C9451000C9451000C9451000C945100FC
:100040000C9451000C9451000C9451000C945100EC
:100050000C9451000C9451000C9451000C945100DC
:100060000C9451000C94510011241FBECFEFD8E026
:10007000DEBFCDBF11E0A0E0B1E0EEEDF3E002C0E5
:1000800005900D92A630B107D9F721E0A6E0B1E0C6
:1000900001C01D92A632B207E1F70E94C1010C9483
:1000A000ED010C9400009093C5008093C40088E19A
:1000B0008093C1008EE08093C20008959091C000AB
:1000C00095FFFCCF8093C600089584B18D6284B9FA
:1000D00084B18F7E84B98AB180688AB98CB5806515
:1000E0008CBD85B1816085B98BB18F778BB908954F
:1000F0008EBD0DB407FEFDCF8EB5089593E09A95A1
:10010000F1F7000095B19E7F95B993E09A95F1F7CC
:1001100000000E94780083E08A95F1F700008FEFDD
:100120000E94780093E09A95F1F7000095B19160F4
:1001300095B90895CF92DF92FF920F931F93CF93BB
:10014000DF93182FF62E6A01022F813011F480E21E
:10015000F80E83E08A95F1F7000085B18E7F85B9AE
:1001600083E08A95F1F7000080E28F0D0E9478000D
:1001700083E08A95F1F70000C0E0D0E01CC01111C7
:100180000FC080EAF81661F08FEF0E947800FE0140
:10019000EA5FFE4F808383E08A95F1F700000AC092
:1001A000F601EC0FFD1F80810E94780083E08A95A4
:1001B000F1F700002196802F90E0C817D907FCF2D4
:1001C00085B1816085B986E091E0DF91CF911F9183
:1001D0000F91FF90DF90CF9008951F93CF93DF93FF
:1001E00000D000D01F92CDB7DEB787EA91E6019725
:1001F000F1F700C0000011E0198321E0AE014F5F6C
:100200005F4F61E081E00E949A008FE2898321E0E4
:10021000AE014F5F5F4F64E081E00E949A00198356
:1002200021E0AE014F5F5F4F62E081E00E949A00E3
:1002300083E0898321E0AE014F5F5F4F63E081E09F
:100240000E949A00198321E0AE014F5F5F4F66E084
:1002500081E00E949A0080E090E009C0E1E0F0E0D7
:10026000EC0FFD1FE80FF91F22E120830196853076
:100270009105A4F325E0AE014F5F5F4F6AE081E096
:100280000E949A0080E090E009C0E1E0F0E0EC0F0D
:10029000FD1FE80FF91F22E12083019685309105AB
:1002A000A4F325E0AE014F5F5F4F60E181E00E9463
:1002B0009A0085E0898321E0AE014F5F5F4F61E1E5
:1002C00081E00E949A008EE1898321E0AE014F5FB8
:1002D0005F4F60E081E00E949A0087EA91E6019713
:1002E000F1F700C000000F900F900F900F900F904B
:1002F000DF91CF911F910895CF93DF93EC0120E020
:10030000AC0161EE80E00E949A0025E0AE0160EA57
:1003100080E00E949A0083EC99E00197F1F700C019
:1003200000008BB180688BB996E09A95F1F700C018
:100330008BB18F778BB983EC99E00197F1F700C00F
:100340000000DF91CF91089583E08A95F1F70000D6
:1003500085B18E7F85B983E08A95F1F7000087E249
:100360000E94780083E08A95F1F7000080E70E9400
:10037000780083E08A95F1F7000085B1816085B946
:100380000895CF93DF9300D000D01F92CDB7DEB792
:1003900085E0E0E0F1E0DE01119601900D928A9592
:1003A000E1F787E690E00E9453000E9465000E94FA
:1003B000ED0083E50E945E008AE00E947E000E94BC
:1003C0005E000E94A401CE0101960E947C0187E09C
:0E03D0000E947E0084FDFBCFEFCFF894FFCF9C
:0603DE003132333435001A
:00000001FF
