:020000020000FC
:1000000007C048656C6C6F20576F726C64200000ED
:1000100000000FEF07B9259A239A13E21093B0005E
:1000200011E01093B1001FE31093B400539A2CD049
:100030003FD02B9800C0E2E0F0E086E017D072D00D
:1000400006D070D0E8E0F0E086E010D00BC02D982C
:100050002B980CE008B952D06BD000E008B94ED014
:100060002D9A0895000000000000FCCF2D9AC8953D
:10007000029408B843D05CD0029408B83FD058D05E
:1000800031968A95A1F708952D982B9840D003E0DA
:1000900008B934D04AD003E008B930D049D003E0E1
:1000A00008B92CD045D002E008B928D03ED0089538
:1000B0002D982B9802E008B921D03AD008E008B971
:1000C0001DD000E008B91AD033D009E008B916D025
:1000D00000E008B913D02CD001E008B90FD000E03F
:1000E00008B90CD025D006E008B908D000E008B95E
:1000F00005D01ED00CE008B901D008952B9A00005D
:1001000000000000000000002B9815D008950AD0D0
:1001100009D008D007D006D005D004D003D002D033
:1001200001D0089554E60AD0089552EB07D00895FF
:100130005DEF04D0089550EE01D0089556BD55E00E
:1001400055BD55B350FFFDCF50E055BD51E055BBF7
:02015000089510
:00000001FF
