:020000020000FC
:10000000209A219A229A2398249840E00FE33FE314
:1000100060D01B9B3FC01C9B33C0FACF43953F333E
:10002000A1F03630A1F03B35A1F03F34A1F03636D7
:10003000A1F03D36A1F03D37A1F03730A1F03F37B8
:10004000A1F0373601F03FE317C036E0E1CF3BE5E2
:10005000DFCF3FE4DDCF36E6DBCF3DE6D9CF3DE76E
:10006000D7CF37E0D5CF3FE7D3CF37E6D1CF493130
:10007000A9F61B9B18C0FBCF0F3341F0063041F0AF
:100080001FD0803029F21C9942D0FACF06E0C0CFB1
:100090000BE5BECF15D06395643161F01B9901C0AB
:1000A000F9CF60E0E4CF1B99FCCF0AD063956431AF
:1000B00009F0F9CF0FE33FE340E060E018D0A8CFAC
:1000C000E6E3F1E2DFE10000DA95E9F73197D1F7F5
:1000D000089520E06BD021E069D00895F1DFF0DFD2
:1000E000EFDFEEDFEDDFECDFEBDFEADF0895E8DFE7
:1000F000E7DFE6DFE5DFE4DFE3DFE2DFE1DFE0DFEC
:10010000DFDFDEDFDDDFDCDFDBDFDADF089581303C
:1001100009F0089595E0403029F012C0DFDFD9DF03
:100120004A95F8CF9A95903011F480E0F0DF00E422
:1001300030E4CFDFD3DF00E030E0CBDFCFDFF2CF42
:100140003F3321F1373601F13F37E1F03730C1F06D
:100150003D37A1F03D3681F0363661F03F3441F055
:100160003B3521F0363001F03FE3D4CF36E0D2CF3B
:100170003BE5D0CF3FE4CECF36E6CCCF3DE6CACF8D
:100180003DE7C8CF37E0C6CF3FE7C4CF37E600C072
:100190000B3521F0063001F00FE3BCCF06E0BACFFB
:1001A000299A299808952A9A2A98089520FFD32EEB
:1001B00020FDD02EDF921F931FB71F9318E0DD1C88
:1001C00010F0289801C0289AEBDF1A95C1F7EBDFF1
:0A01D0001F911FBF1F91DF900895DB
:00000001FF
