S01100004C6162354350726F6A2E73726563F1
S11300000C94CF000C94EC000C94EC000C94EC00D9
S11300100C94EC000C94EC000C94EC000C94EC00AC
S11300200C94EC000C94EC000C94EC000C94EC009C
S11300300C94EC000C94EC000C94EC000C94EC008C
S11300400C94EC000C94EC000C94EC000C94EC007C
S11300500C94EC000C94EC000C94EC000C94EC006C
S11300600C94EC000C94EC004E414E494E4954590A
S1130070494E46CDCCCC3D0AD7233C17B7D138776F
S1130080CC2B329595E6241FB14F0A000020410085
S113009000C84200401C4620BCBE4CCA1B0E5AAECF
S11300A0C59D7400407A10F35A00A0724E180900DE
S11300B010A5D4E80000E87648170000E40B5402C9
S11300C00000CA9A3B000000E1F505000080969804
S11300D000000040420F000000A086010000001054
S11300E02700000000E80300000000640000000096
S11300F0000A00000000000100000000002C76D877
S113010088DC674F0823DFC1DFAE59E1B1B796E55C
S1130110E3E453C63AE651997696E8E6C28426EBC0
S1130120898C9B62ED407C6FFCEFBC9C9F40F2BAD3
S1130130A56FA5F490055A2AF75C936B6CF9676D6B
S1130140C11BFCE0E40D47FEF520E6B500D0ED90C0
S11301502E0300943577050080841E080000204E8D
S11301600A000000C80C333333330F986E12831126
S113017041EF8D2114893BE65516CFFEE6DB18D1FD
S1130180844B381BF77C1D901DA4BBE424203284CF
S1130190725E228100C9F124ECA1E53D27001124FF
S11301A01FBECFEFD8E0DEBFCDBF11E0A0E0B1E0CD
S11301B0E4E4F3E102C005900D92AA3CB107D9F73B
S11301C021E0AAECB1E001C01D92A73DB207E1F71E
S11301D00E94AD030C94A0090C9400001092B90085
S11301E088E48093B800089594EA9093BC009091B9
S11301F0BC009923E4F79091B900987F983011F0EE
S1130200903191F48093BB0084E88093BC0080918A
S1130210BC008823E4F78091B900887F883131F0ED
S1130220803431F480E0089581E0089580E00895F9
S113023081E0089584E98093BC008091BC0084FD32
S1130240FCCF08958093BB0084E88093BC00809128
S1130250BC008823E4F78091B900887F883211F0CC
S113026081E0089580E008959093C5008093C400D0
S113027088E18093C1008EE08093C200089590913C
S1130280C00095FFFCCF8093C60008958091C00004
S11302908823E4F78091C600089580E480937C006D
S11302A087E880937A0008950F931F93CF93DF9389
S11302B0CDB7DEB727970FB6F894DEBF0FBECDBF1C
S11302C0EAE7F0E080818064808360917800709137
S11302D0790080E090E00E941F0420E030E040EAD2
S11302E050E40E94850420E030E040E85AE30E9494
S11302F085048E010F5F1F4F22E044E00E941A051F
S113030086E70E943F018DE30E943F0100E010E078
S11303100BC0E1E0F0E0EC0FFD1FE00FF11F808166
S11303200E943F010F5F1F4F0730110590F380E2D9
S11303300E943F0186E50E943F0180E20E943F0146
S113034027960FB6F894DEBF0FBECDBFDF91CF91D5
S11303501F910F9108956F927F928F929F92AF9207
S1130360BF92CF92DF92EF92FF920F931F93CF939E
S1130370DF93CDB7DEB7E6970FB6F894DEBF0FBEB6
S1130380CDBF6DB67EB6EAECF1E0028110E0005319
S113039011092085203251F4C090D101D12C20E3E1
S11303A0C21AD108EE24E394F12C41C08091D30108
S11303B08032D9F48091D10190E0C0976C01CC0CCB
S11303C0DD1C880F991F880F991F880F991F8C0DAA
S11303D09D1DC22ED12CE0E3CE1AD108C80ED91E21
S11303E06894EE24E1F8F12C22C08091D10190E0D0
S11303F0C09734E6389F6001399FD00C1124AC01BA
S1130400440F551F880F991F880F991F880F991F34
S1130410840F951F30E0205331098C0D9D1D690117
S1130420C80ED91E0F2EF3E0EF2EF12CF02D8BE029
S1130430E0E8F1E0DE01119601900D928A95E1F772
S1130440A12CB12C0CC0E1E0F0E0EC0FFD1FEA0D93
S1130450FB1D80810E943F01FFEFAF1ABF0A2BE012
S1130460A216B10480F357018DB79EB78E199F0968
S11304700FB6F8949EBF0FBE8DBF6DB77EB76F5F8A
S11304807F4F4B014AE0C6010E944D05E12CF12C3F
S113049009C0F401EE0DFF1D80810E943F019FEF12
S11304A0E91AF90AEA14FB04A0F389E1EBE8F1E0A4
S11304B0DE011C9601900D928A95E1F7E12CF12C56
S11304C00CC0ECE0F0E0EC0FFD1FEE0DFF1D808191
S11304D00E943F01EFEFEE1AFE0AF9E1EF16F10474
S11304E080F30F2EFAECEF2EF1E0FF2EF02DF70142
S11304F084810E943F01F70185810E943F0180E2CF
S11305000E943F0182E1E4EAF1E0DE019596019068
S11305100D928A95E1F7E12CF12C0CC0E5E2F0E0B4
S1130520EC0FFD1FEE0DFF1D80810E943F01FFEFC8
S1130530EF1AFF0A22E1E216F10480F38091CC0164
S11305400E943F01A12CB12C31C088E50E94F40027
S1130550802F0E942201F701EE0FFF1FE050FF4F92
S113056080810E9422018091CE01813331F487E899
S113057093E10197F1F700C000008091CE0182332E
S113058031F4EFECF7E03197F1F700C000000E947E
S11305901A01FFEFEF1AFF0A02C0E12CF12C20E44C
S11305A0E216F10490F28FEFA81AB80AAC14BD0455
S11305B0A4F30FB6F8947EBE0FBE6DBEE6960FB6DA
S11305C0F894DEBF0FBECDBFDF91CF911F910F9185
S11305D0FF90EF90DF90CF90BF90AF909F908F905F
S11305E07F906F900895EF92FF920F931F93CF9394
S11305F0DF93CDB7DEB76C970FB6F894DEBF0FBEAE
S1130600CDBF0091CC0110E00053110944E050E04B
S11306106EEC71E0CE0101960E943E051D82CE0172
S113062001960E943A0520E030E04CE452E40E9436
S113063085040E94E903F62EE72E88E50E94F40063
S1130640802F0E9422018F2D0E9422010E941A01F4
S11306508CE0E6EBF1E0DE01169601900D928A95AE
S1130660E1F700E010E00BC0E6E0F0E0EC0FFD1F66
S1130670E00FF11F80810E943F010F5F1F4F0C307C
S1130680110590F38091CC010E943F0188E0E2ECD7
S1130690F1E0DE01529601900D928A95E1F700E0B7
S11306A010E00BC0E2E1F0E0EC0FFD1FE00FF11FE2
S11306B080810E943F010F5F1F4F0830110590F3A6
S11306C00AEC11E0F80184810E943F01F801858160
S11306D00E943F01F80186810E943F01F801878151
S11306E00E943F0180E20E943F0186E50E943F0193
S11306F080E20E943F0188E20E943F014AE0BE017D
S1130700665E7F4F8F2D9E2D0E944D0500E010E008
S11307100BC0EAE1F0E0EC0FFD1FE00FF11F808158
S11307200E943F010F5F1F4F0330110590F384E6D1
S11307300E943F0189E20E943F0180E20E943F0142
S11307406C960FB6F894DEBF0FBECDBFDF91CF918C
S11307501F910F91FF90EF90089587E690E00E941B
S113076034010E944D010E94EE000E94460187342C
S113077019F40E945401F9CF833591F48093CA018E
S1130780C1E0D0E007C00E944601FE01E653FE4FDF
S113079080832196C830D105B1F70E94F302E5CFDA
S11307A0873519F78093CA01C1E0D0E00CC00E94DC
S11307B04601FE01E653FE4F8083803211F02196FC
S11307C002C0C2E3D0E0C233D10589F70E94AB0175
S11307D0CCCF0E94F0036894B1110C947F04089567
S11307E00E94640488F09F5798F0B92F9927B75155
S11307F0B0F0E1F0660F771F881F991F1AF0BA95C1
S1130800C9F714C0B13091F00E947E04B1E008959C
S11308100C947E04672F782F8827B85F39F0B93F8E
S1130820CCF3869577956795B395D9F73EF4909573
S11308308095709561957F4F8F4F9F4F0895E894F1
S113084009C097FB3EF490958095709561957F4F14
S11308508F4F9F4F9923A9F0F92F96E9BB279395C2
S1130860F695879577956795B795F111F8CFFAF4D2
S1130870BB0F11F460FF1BC06F5F7F4F8F4F9F4F03
S113088016C0882311F096E911C0772321F09EE861
S1130890872F762F05C0662371F096E8862F70E0C7
S11308A060E02AF09A95660F771F881FDAF7880FA1
S11308B09695879597F9089557FD9058440F551FBD
S11308C059F05F3F71F04795880F97FB991F61F0CE
S11308D09F3F79F087950895121613061406551F45
S11308E0F2CF4695F1DF08C0161617061806991FB1
S11308F0F1CF86957105610508940895E894BB27A6
S113090066277727CB0197F908950E9498040C94E1
S113091009050E94FB0438F00E94020520F095238B
S113092011F00C94F2040C94F80411240C947F0438
S11309300E945C0470F3959FC1F3950F50E0551F1E
S1130940629FF001729FBB27F00DB11D639FAA2720
S1130950F00DB11DAA1F649F6627B00DA11D661F6F
S1130960829F2227B00DA11D621F739FB00DA11D90
S1130970621F839FA00D611D221F749F3327A00D4A
S1130980611D231F849F600D211D822F762F6A2FE6
S113099011249F5750409AF0F1F088234AF0EE0F4B
S11309A0FF1FBB1F661F771F881F91505040A9F778
S11309B09E3F510580F00C94F2040C947F045F3F39
S11309C0E4F3983ED4F3869577956795B795F795B4
S11309D0E7959F5FC1F7FE2B880F911D969587952C
S11309E097F9089597F99F6780E870E060E00895AB
S11309F09FEF80EC089500240A9416161706180633
S1130A000906089500240A9412161306140605060E
S1130A100895092E0394000C11F4882352F0BB0F9F
S1130A2040F4BF2B11F460FF04C06F5F7F4F8F4F02
S1130A309F4F0895EF920F931F93CF93DF93E80195
S1130A4047FD02C034E001C034E1042E000C550B14
S1130A5057FF03C0519541955109E32E022F242FCE
S1130A60AE010E947205CE01DF91CF911F910F91CB
S1130A70EF900895662777270C94CC06FB01DC01E0
S1130A804150504048F001900D920020C9F701C038
S1130A901D9241505040E0F70895BB274A3031F48D
S1130AA0992322F4BDE2909581959F4F0C945905AA
S1130AB0BB27FB015527AA27880F991FAA1FA41734
S1130AC010F0A41B83955051B9F7A05DAA3308F028
S1130AD0A95DA193009779F7B111B1931192CB015C
S1130AE00C941309A9E0B0E0E8E7F5E00C94600980
S1130AF06A01122FB02E2BE3201720F0FF24F39469
S1130B00F00E02C02CE3F22E0F2D27E0AE014F5F52
S1130B105F4F0E941A08BC014981842F897081307B
S1130B2031F0E1FC06C0E0FE06C090E205C09DE2A3
S1130B3003C09BE201C090E05E2D507143FF3CC0B6
S1130B40911102C083E001C084E0811718F4212FC1
S1130B50281B01C020E051110BC0F601822F30E2A6
S1130B60882319F031938150FBCFC20ED11C20E0B1
S1130B70992329F0D6019C93F60131966F01C601A1
S1130B800396E2FE0AC03EE4D6013C9341E411968A
S1130B904C93119712963C9306C03EE6F6013083BF
S1130BA041E641833283FC01322F40E2332309F4CE
S1130BB042C041933150FACF42FF44C0911102C068
S1130BC083E001C084E0811718F4212F281B01C0A1
S1130BD020E051110BC0F601822F30E2882319F076
S1130BE031938150FBCFC20ED11C20E0992329F010
S1130BF0D6019C93F60131966F01C6010396E2FE7D
S1130C000BC039E4D6013C933EE411963C93119712
S1130C1036E412963C9307C039E6F60130833EE68B
S1130C20318336E63283FC01322F40E2332319F05C
S1130C3041933150FBCFFC01E20FF11D10828EEF86
S1130C409FEFA6C021E030E0911102C020E030E027
S1130C50161617061CF4FB01319602C0E1E0F0E021
S1130C602E0F3F1FBB2021F0EB2DF0E0319602C088
S1130C70E0E0F0E02E0F3F1FE12FF0E02E173F07DA
S1130C801CF4121B212F01C020E08E2D887159F411
S1130C90F601822F30E2882319F031938150FBCF83
S1130CA0C20ED11C20E0992329F0D6019C93F601B1
S1130CB031966F0151110BC0F601822F90E3882306
S1130CC019F091938150FBCFC20ED11C20E00F2D5F
S1130CD0060F9A81342F307144FF03C0913309F415
S1130CE00150101624F4093018F008E001C001E0A6
S1130CF0AB0177FF02C040E050E0FB01E41BF50BC1
S1130D00A1E0B0E0AC0FBD1FEA0FFB1F8EE2A82EDE
S1130D104B01801A91080B2D10E0119501951109D2
S1130D204F3FBFEF5B0721F4D601AC9211966D01E2
S1130D30641775072CF08416950614F4818101C09C
S1130D4080E3415051093196D60111967D01401737
S1130D50510724F0D6018C936701E2CF641775071D
S1130D6039F4963320F4953319F4311101C081E339
S1130D70F6018083F701822F90E2882319F0919382
S1130D808150FBCFF701E20FF11D108280E090E06B
S1130D902996ECE00C947C09A0E0B0E0E2EDF6E0EA
S1130DA00C946009EC016B016115710519F0FB01EC
S1130DB0918380837E01FFEFEF1AFF0A0881802F61
S1130DC090E00E94F208892B11F0E701F3CF0D3275
S1130DD039F47E0182E0E80EF11C098111E008C0BB
S1130DE00B3229F47E0192E0E90EF11C098110E036
S1130DF0E701219743E050E060E770E0CE010E94F4
S1130E00FB08892BC1F4239645E050E06BE670E0C3
S1130E10CE010E94FB08892B09F42596C114D10444
S1130E2019F0F601D183C0831111F6C060E070E0BF
S1130E3080E89FE7FAC043E050E068E670E0CE0146
S1130E400E94FB08892B59F4C114D10409F4E9C0A8
S1130E50F2E0EF0EF11CF601F182E082E2C020E044
S1130E6030E0A901C0E0D0E0F70180EDA82EA00E8B
S1130E7089E08A1530F1912F9260B92E812F887004
S1130E8012FF04C0811124C0219622C08111219730
S1130E90A5E0B0E00E944F09DC01CB01880F991F47
S1130EA0AA1FBB1F9C01AD012A0D311D411D511DFF
S1130EB0283989E93807480789E1580748F0166056
S1130EC006C09EEFA9120AC013FD40C01860B12EDF
S1130ED08FEFE81AF80A00811B2DC6CF802F8F7D73
S1130EE08534A1F580818D3211F4106106C08B32F6
S1130EF021F0319661E070E004C08181329662E0B5
S1130F0070E080538A3018F0E61BF70B1FC060E0D6
S1130F1070E060389CE079075CF4DB01AA0FBB1F2A
S1130F20AA0FBB1F6A0F7B1F660F771F680F711D07
S1130F303196DF0111978C9180538A3050F314FF5E
S1130F4003C0719561957109C60FD71F11FF08C0C1
S1130F50C114D10429F0CF010197F6019183808354
S1130F60CA01B9010E941F04212F2370233019F0F4
S1130F704B015C0106C04B015C01B7FAB094B7F8B1
S1130F80B09420E030E0A901C501B4010E94230916
S1130F90882309F43EC0D7FF06C0D195C195D10975
S1130FA007E810E002C00FE910E06801F8E1CF1A89
S1130FB0D10890E2E92EF12CCE15DF0574F0F8018A
S1130FC02591359145915491C501B4010E94850440
S1130FD04B015C01CE19DF09EFCF04501109F594E0
S1130FE0E7940C151D0541F78A2D880F8B2D881F5A
S1130FF08F3F49F020E030E0A901C501B4010E940F
S11310002309811106C082E290E09093D601809377
S1131010D501C501B40109C060E070E080E89FEF2C
S113102004C060E070E080EC9FE7CDB7DEB7ECE091
S11310300C947C09283008F027E03327DA01990F53
S1131040311D87FD916000966105710539F43260A8
S11310502E5F3D9330E32A95E1F708959F3F30F0EA
S113106080387105610509F03C5F3C5F3D93913028
S113107008F08068911DDF93CF931F930F93FF9225
S1131080EF92192F987F9695E92F96959695E90FEB
S1131090FF27E350FF4F99273327EE24FF24A701AE
S11310A0E70105900894079428F4360FE71EF81E0C
S11310B0491F511D660F771F881F991F0694A1F7BA
S11310C00590079428F4E70EF81E491F561FC11D0A
S11310D0770F881F991F661F0694A1F70590079440
S11310E028F4F80E491F561FC71FD11D880F991FDA
S11310F0661F771F0694A1F70590079420F4490F03
S1131100561FC71FD81F990F661F771F881F069485
S1131110A9F784911095177041F0D695C795579506
S11311204795F794E7941A95C1F7E3EAF0E06894D9
S11311301590159135916591959105907FE2739580
S1131140E118F10A430B560BC90BD009C0F7E10CA7
S1131150F11E431F561FC91FD01D7EF4703311F4B6
S11311608A95E6CFE894015030F0080F0AF400277E
S1131170021708F4202F2395022F7A3328F079E3FD
S11311807D932A95E9F710C07D932A9589F60694F4
S113119097956795379517951794E118F10A430BBE
S11311A0560BC90BD00998F023957E9173957A3329
S11311B008F070E37C932013B8F77E9170617D93FF
S11311C030F0839571E37D9370E32A95E1F7112460
S11311D0EF90FF900F911F91CF91DF91992787FD99
S11311E09095089591110C944C09803219F089500E
S11311F08550C8F70895FB01DC014150504088F048
S11312008D9181341CF08B350CF4805E65916134D2
S11312101CF06B350CF4605E861B611171F3990B45
S11312200895881BFCCFDC01FC01672F71917723A3
S1131230E1F7329704C07C916D9370836291AE178D
S1131240BF07C8F308950E94280908F481E00895AF
S1131250990F0008550FAA0BE0E8FEEF16161706C3
S1131260E807F907C0F012161306E407F50798F02B
S1131270621B730B840B950B39F40A2661F0232B44
S1131280242B252B21F408950A2609F4A140A695C0
S11312908FEF811D811D08959927882708950E9445
S11312A09109A59F900DB49F900DA49F800D911D51
S11312B0112408952F923F924F925F926F927F92E2
S11312C08F929F92AF92BF92CF92DF92EF92FF9252
S11312D00F931F93CF93DF93CDB7DEB7CA1BDB0BFE
S11312E00FB6F894DEBF0FBECDBF09942A883988A3
S11312F048885F846E847D848C849B84AA84B984AA
S1131300C884DF80EE80FD800C811B81AA81B981B5
S1131310CE0FD11D0FB6F894DEBF0FBECDBFED01C9
S11313200895A29FB001B39FC001A39F700D811DBA
S11313301124911DB29F700D811D1124911D0895DA
S1071340F894FFCF4B
S113134480008D009900A500B100BC00C700D10045
S1131354DB00E300EA00F100F600FA00FE00FF00FF
S1131364FF00FF00FE00FA00F600F100EA00E300CB
S1131374DB00D100C700BC00B100A50099008D00BA
S11313848000730067005B004F00440039002F00A5
S113139425001D0016000F000A00060002000100CB
S11313A400000100020006000A000F0016001D00E0
S11313B425002F00390044004F005B0067007300D0
S11313C447656E65726174696E67202073696E6522
S11313D42077617665206379636C6573207769741B
S11313E46820663D487A206F6E2044414320636838
S11313F4616E6E656C20444143206368616E6E6562
S10D14046C202073657420746F20BF
S9030000FC
