S0150000546865726D696361725F4341522E737265633B
S11300000C9434000C9451000C9451000C94510045
S11300100C9451000C9451000C9451000C94510018
S11300200C9451000C9451000C9451000C94510008
S11300300C9451000C9451000C9451000C945100F8
S11300400C9451000C9451000C9451000C945100E8
S11300500C9451000C9451000C9451000C945100D8
S11300600C9451000C94510011241FBECFEFD8E022
S1130070DEBFCDBF11E0A0E0B1E0E4E6FCE002C0E9
S113008005900D92A233B107D9F721E0A2E3B1E0C4
S113009001C01D92AA35B207E1F70E9465000C94D5
S11300A030060C9400009093C5008093C40088E14E
S11300B08093C1008EE08093C20008959091C000A7
S11300C095FFFCCF8093C6000895CF93DF93CDB7FF
S11300D0DEB7C054D1090FB6F894DEBF0FBECDBF52
S11300E08DE0EAE0F1E0DE01119601900D928A952F
S11300F0E1F787E690E00E9453008CE40E945E00E2
S11301000E94E9008CE40E945E000E941C028CE4C0
S11301100E945E000E94E302892BC9F30E94FC0244
S1130120BC01CE0181960E944B0382E50E945E00D1
S11301302FE986E891E0215080409040E1F700C02B
S11301400000CE0101960E94290291E0811101C0B4
S113015090E090933201809132018823C1F283E5CB
S11301600E945E00D4CFBF92CF92DF92EF92FF92B3
S11301700F931F93CF93DF936B017A019BB19F7E03
S11301809BB90E944503B82EC0E0D0E00AC08601A6
S11301900C0F1D1FF80180810E944503F801808324
S11301A02196CE15DF0598F38BB180618BB98B2D29
S11301B0DF91CF911F910F91FF90EF90DF90CF903F
S11301C0BF90089580620E94B30008950E94B30016
S11301D008950F931F93CF93DF931F92CDB7DEB78C
S11301E0F894E9E6F0E08081826080838DB38160D9
S11301F08DBB78948AB180628AB98AB180618AB9E8
S11302008BB180618BB98BB18F7D8BB90E94340324
S11302102FEF81EE94E0215080409040E1F700C040
S113022000000FE30093530141E050E063E571E007
S113023080E00E94E2001092530141E050E063E547
S113024071E081E00E94E20080EF8093530141E07D
S113025050E063E571E084E00E94E20010925301F3
S113026041E050E063E571E082E00E94E20084E74F
S11302708093530141E050E063E571E085E00E9422
S1130280E2008EE08093530141E050E063E571E0C9
S113029086E00E94E20010E71093530141E050E031
S11302A063E571E087E00E94E2000093530141E0BE
S11302B050E063E571E08CE10E94E20084E0809309
S11302C0530141E050E063E571E08DE10E94E200FA
S11302D0198340E050E060E070E082EE0E94E200AA
S11302E040E050E060E070E081EE0E94E20045E012
S11302F050E065E071E08AE00E94E20045E050E0F1
S113030060E071E080E10E94E20041E050E0BE0163
S11303106F5F7F4F82E00E94E20089818160898360
S113032041E050E0BE016F5F7F4F82E00E94E20037
S11303300F90DF91CF911F910F9108951F93CF9349
S1130340DF931F92CDB7DEB7182F41E050E0BE0116
S11303506F5F7F4F80E00E94E600133071F128F454
S1130360113059F01230E9F062C0153009F447C079
S1130370D0F1163009F447C05AC0898181FD57C0B5
S113038082608093530141E050E063E571E080E0D6
S11303900E94E2008FE39FE10197F1F700C00000A3
S11303A046C089818D7F8093530141E050E063E52D
S11303B071E080E00E94E2003AC08981816080930C
S11303C0530141E050E063E571E080E00E94E20007
S11303D080E78093530141E050E063E571E087E0FA
S11303E00E94E20024C089818E7F8093530141E002
S11303F050E063E571E080E00E94E20018C08BB138
S11304008F7D8BB914C089818E7F8093530141E025
S113041050E063E571E080E00E94E2008BB180620D
S11304208BB987E592E00197F1F700C000000F90C7
S1130430DF91CF911F91089583E00E949E018BB1BB
S113044080628BB987E592E00197F1F700C0000064
S11304500895CF92DF92EF92FF920F931F93CF9361
S1130460DF93CDB7DEB7A0970FB6F894DEBF0FBE0B
S1130470CDBF7C0100E2CE010196FC01202F119238
S11304802A95E9F7B7010E944B03F7010190002078
S1130490E9F731971E2F1E1984E00E949E0140E067
S11304A050E060E070E082EE0E94E20040E050E044
S11304B060E070E081EE0E94E2000093530141E0AD
S11304C050E063E571E087E00E94E20041E050E023
S11304D063E571E080E00E94E6008091530180644E
S11304E08093530141E050E063E571E080E00E94B5
S11304F0E2008BB18F7E8BB980EB0E9440030AC06F
S113050067018FEFC81AD80AF70180810E9440035F
S1130510102F76010FEF010F1111F2CF80E00E942E
S113052040038BB180618BB98BB180628BB9F0E5EC
S1130530FA95F1F78BB18F7D8BB941E050E063E51B
S113054071E087E00E94E60007C041E050E063E507
S113055071E087E00E94E6008091530185FFF5CFAA
S1130560CE0101969F938F9389E191E09F938F939E
S11305700E94520341E050E063E571E080E00E9494
S1130580E600809153018F7B8093530141E050E05A
S113059063E571E080E00E94E2000E941C020F907B
S11305A00F900F900F9081E0A0960FB6F894DEBFE5
S11305B00FBECDBFDF91CF911F910F91FF90EF90B0
S11305C0DF90CF900895CF93DF931F92CDB7DEB71E
S11305D041E050E0BE016F5F7F4F87E10E94E6007B
S11305E0898180FD03C081E090E002C080E090E05A
S11305F00F90DF91CF91089580E2E3E3F1E0DF0112
S11306001D928A95E9F741E050E063E571E080E6E8
S11306100E94E60040915301442341F050E04F5FB3
S11306205F4F63E371E081E60E94B3008091330180
S1130630882369F080E48093530141E050E063E54E
S113064071E087E00E94E20083E391E0089580E492
S11306508093530141E050E063E571E087E00E943C
S1130660E2008BE291E0089584B18F7E84B984B175
S1130670886284B980E58CBD8DB581608DBD089597
S11306808EBD0DB407FEFDCF08958EBD0DB407FEDB
S1130690FDCF8EB50895FB01DC0101900D92002081
S11306A0E1F70895A0E0B0E0E8E5F3E00C94090672
S11306B0AE014B5F5F4FFA0161917191AF0180917F
S11306C05601909157010E946803E2E00C942506BC
S11306D0ABE0B0E0EEE6F3E00C94F9056C017B01CD
S11306E08A01FC0117821682838181FFCCC1CE016D
S11306F001963C01F6019381F70193FD859193FFE7
S113070081917F01882309F4BAC1853239F493FDBC
S1130710859193FF81917F01853229F4B60190E0A0
S11307200E945F05E7CF912C212C312CFFE1F315BA
S1130730D8F08B3279F038F4803279F08332A1F436
S1130740232D20611DC08D3261F0803369F4232D87
S1130750216016C0832D8260382EE32DE4603E2E86
S11307602AC0F32DF8601DC037FC2DC020ED280FE2
S11307702A3040F08E32B9F436FC81C1232D206436
S1130780322E19C036FE06C08AE0989E200D112430
S1130790922E11C0EAE02E9E200D1124222EF32D5C
S11307A0F0623F2E08C08C3621F4832D8068382EE9
S11307B002C0883641F4F70193FD859193FF81913E
S11307C07F018111B3CF982F9F7D9554933028F4E6
S11307D00C5F1F4F9FE399830DC0833631F083373D
S11307E071F0833509F059C021C0F80180818983F3
S11307F00E5F1F4F88248394912C530113C028014A
S1130800F2E04F0E511CF801A080B18036FE03C007
S1130810692D70E002C06FEF7FEFC5010E9454059F
S11308204C018201F32DFF773F2E16C0280122E0F0
S1130830420E511CF801A080B18036FE03C0692D20
S113084070E002C06FEF7FEFC5010E9449054C01C3
S1130850F32DF0683F2E820133FC1BC0822D90E003
S113086088169906B0F4B60180E290E00E945F0514
S11308702A94F4CFF50137FC859137FE81915F010D
S1130880B60190E00E945F0521102A9421E0821AAB
S113089091088114910471F7E8C0843611F0893607
S11308A041F5F80137FE07C060817181828193812F
S11308B00C5F1F4F08C060817181072E000C880BEC
S11308C0990B0E5F1F4FF32DFF763F2E97FF09C044
S11308D090958095709561957F4F8F4F9F4FF068ED
S11308E03F2E2AE030E0A3010E949B05882E861843
S11308F045C0853731F4232D2F7EB22E2AE030E017
S113090025C0932D997FB92E8F36C1F018F4883500
S113091079F0B5C0803719F0883721F0B0C0E92FDD
S1130920E061BE2EB4FE0DC0FB2DF460BF2E09C0E5
S113093034FE0AC0292F2660B22E06C028E030E01B
S113094005C020E130E002C020E132E0F801B7FE4A
S113095007C060817181828193810C5F1F4F06C043
S11309606081718180E090E00E5F1F4FA3010E94BF
S11309709B05882E8618FB2DFF773F2E36FE0DC073
S1130980232D2E7FA22E891458F434FE0BC032FC82
S113099009C0832D8E7EA82E05C0B82CA32C03C0BD
S11309A0B82C01C0B92CA4FE0FC0FE01E80DF11D46
S11309B08081803321F49A2D997EA92E09C0A2FE4C
S11309C006C0B394B39404C08A2D867809F0B39416
S11309D0A3FC11C0A0FE06C0B21488F4280C922C0B
S11309E09B180EC0B21460F4B60180E290E00E943D
S11309F05F05B394F7CFB21418F42B1802C0982CE7
S1130A00212CA4FE10C0B60180E390E00E945F0593
S1130A10A2FE17C0A1FC03C088E790E002C088E5ED
S1130A2090E0B6010CC08A2D867859F0A1FE02C070
S1130A308BE201C080E2A7FC8DE2B60190E00E9447
S1130A405F05891438F4B60180E390E00E945F05E5
S1130A509A94F7CF8A94F301E80DF11D8081B601D1
S1130A6090E00E945F058110F5CF222009F442CE68
S1130A70B60180E290E00E945F052A94F6CFF60169
S1130A808681978102C08FEF9FEF2B96E2E10C9451
S1130A901506FC010590615070400110D8F780954F
S1130AA090958E0F9F1F0895FC0161507040019036
S1130AB00110D8F7809590958E0F9F1F08950F937E
S1130AC01F93CF93DF93FB01238121FD03C08FEF9D
S1130AD09FEF2CC022FF16C04681578124813581A7
S1130AE04217530744F4A081B1819D012F5F3F4F0A
S1130AF0318320838C93268137812F5F3F4F378347
S1130B00268314C08B01EC01FB010084F185E02DE8
S1130B100995892BE1F6D80116968D919C9117972A
S1130B20019617969C938E931697CE01DF91CF91E1
S1130B301F910F910895FA01AA27283051F120310D
S1130B4081F1E8946F936E7F6E5F7F4F8F4F9F4F5D
S1130B50AF4FB1E03ED0B4E03CD0670F781F891F9F
S1130B609A1FA11D680F791F8A1F911DA11D6A0F6D
S1130B70711D811D911DA11D20D009F468943F9120
S1130B802AE0269F11243019305D3193DEF6CF011F
S1130B900895462F4770405D4193B3E00FD0C9F7E5
S1130BA0F6CF462F4F70405D4A3318F0495D31FD52
S1130BB04052419302D0A9F7EACFB4E0A6959795A5
S1130BC0879577956795BA95C9F70097610571057B
S1130BD008959B01AC010A2E0694579547953795C5
S1130BE02795BA95C9F7620F731F841F951FA01D1F
S1130BF008952F923F924F925F926F927F928F92BD
S1130C009F92AF92BF92CF92DF92EF92FF920F9397
S1130C101F93CF93DF93CDB7DEB7CA1BDB0B0FB6A1
S1130C20F894DEBF0FBECDBF09942A88398848885E
S1130C305F846E847D848C849B84AA84B984C884F4
S1130C40DF80EE80FD800C811B81AA81B981CE0FEB
S1130C50D11D0FB6F894DEBF0FBECDBFED010895D0
S1070C60F894FFCF32
S1130C64E7E7E7E7E7E7E7E7E7E748656C6C6F2062
S1130C74576F726C64210041004D6573736167653D
S1130C842073656E743A2025730A006661696C6585
S1050C946400F6
S9030000FC
