:020000020000FC
:10000000209A219A229A2398249840E084E00FE3D2
:100010003FE384E020E0A1D121E09FD195D11B9B5B
:100020003FC01C9B44C0F5CF0F3311F0063011F0D8
:1000300006E0EFCF0BE5EDCF40E0803019F079D14D
:100040008A95FACF0FE33FE3CAD0E3CF43953F331E
:10005000A9F03630A9F03B35A9F03F34A9F0363687
:10006000A9F03D36A9F03D37A9F03730A9F03F3768
:10007000A9F0373601F03FE3D7CFCBCF36E0C9CF79
:100080003BE5C7CF3FE4C5CF36E6C3CF3DE6C1CFA2
:100090003DE7BFCF37E0BDCF3FE7BBCF37E6B9CFB6
:1000A00053D163956431B9F01B9905C0F9CF1C9BFE
:1000B000FECF0C94710060E000C0493139F61B9B03
:1000C00003C01C99FACFF3CF1B99F5CF3DD16395AF
:1000D000643109F0F9CF0FE33FE340E060E054D131
:1000E00098CF59E1451302C00C94F40058E1451330
:1000F00002C00C94FA0057E1451302C00C940001B1
:1001000056E1451302C00C94060155E1451302C0A7
:100110000C940C0154E1451302C00C94120153E1FC
:10012000451302C00C94180152E1451302C00C940F
:100130001E0151E1451302C00C94240150E1451306
:1001400002C00C942A015FE0451302C00C943001F8
:100150005EE0451302C00C9436015DE0451302C019
:100160000C943C015CE0451302C00C9442015BE03E
:10017000451302C00C9448015AE0451302C00C9488
:100180004E0159E0451302C00C94540158E0451348
:1001900002C00C945A0157E0451302C00C94600150
:1001A00056E0451302C00C94660155E0451302C0A9
:1001B0000C946C0154E0451302C00C94720153E09E
:1001C000451302C00C94780152E0451302C00C9410
:1001D0007E0151E045130C941C000C94840120E036
:1001E000BCD021E0BAD008950BE53DE60E94EF00B7
:1001F000CBD000C00BE536E60E94EF00C5D000C0B2
:100200000BE53FE40E94EF00BFD000C00BE53BE5EB
:100210000E94EF00B9D000C00BE536E00E94EF006D
:10022000B3D000C00BE53FE30E94EF00ADD000C0AB
:1002300006E037E60E94EF00A7D000C006E03FE7E7
:100240000E94EF00A1D000C006E037E00E94EF005E
:100250009BD000C006E03DE70E94EF0095D000C0B3
:1002600006E03DE60E94EF008FD000C006E036E6D3
:100270000E94EF0089D000C006E03FE40E94EF003A
:1002800083D000C006E03BE50E94EF007DD000C0B7
:1002900006E036E00E94EF0077D000C006E03FE3C2
:1002A0000E94EF0071D000C00FE337E60E94EF001C
:1002B0006BD000C00FE33FE70E94EF0065D000C0A5
:1002C0000FE337E00E94EF005FD000C00FE33DE78F
:1002D0000E94EF0059D000C00FE33DE60E94EF00FE
:1002E00053D000C00FE336E60E94EF004DD000C0AF
:1002F0000FE33FE40E94EF0047D000C00FE33BE56F
:100300000E94EF0041D000C00FE336E00E94EF00F2
:100310003BD000C00FE33FE30E94EF0035D08CCE0E
:10032000E6E3F1E2DFEF0000DA95E9F73197D1F784
:10033000089500E030E00E94EF00F2DF00E430E4D6
:100340000E94EF00EDDF0895E6E3F1E2DFE1000057
:10035000DA95E9F73197D1F7089520FFD32E20FDE4
:10036000D02EDF921F931FB71F9318E0DD1C10F0F3
:10037000289801C0289A18D01A95C1F718D01F9153
:100380001FBF1F91DF900895DFDFDEDFDDDFDCDFE1
:10039000DBDFDADFD9DFD8DFD7DFD6DFD5DFD4DFA9
:1003A000D3DFD2DFD1DF0895299A299808952A9AB8
:0403B0002A980895EA
:00000001FF
