:100000000C9434000C94B2000C9451000C945100E8
:100010000C9451000C9451000C9451000C9451001C
:100020000C9451000C9451000C9451000C9451000C
:100030000C9451000C9451000C9451000C945100FC
:100040000C9451000C9451000C9451000C945100EC
:100050000C9451000C9451000C9451000C945100DC
:100060000C9451000C94510011241FBECFEFD8E026
:10007000DEBFCDBF11E0A0E0B1E0EEE4FCE002C0E5
:1000800005900D92A632B107D9F721E0A6E2B1E0C2
:1000900001C01D92AF34B207E1F70E9465000C94D5
:1000A00025060C9400009093C5008093C40088E15D
:1000B0008093C1008EE08093C20008959091C000AB
:1000C00095FFFCCF8093C6000895CF93DF93CDB703
:1000D000DEB7C054D1090FB6F894DEBF0FBECDBF56
:1000E00087E690E00E94530082E50E945E0085E66C
:1000F0000E945E0081E30E945E000E94F70082E39E
:100100000E945E000E942A0283E30E945E008091AA
:1001100026018823C9F3109226010E94F102BC0136
:10012000CE0181960E94400382E50E945E002FE985
:1001300086E891E0215080409040E1F700C0000047
:10014000CE0101960E94370291E0811101C090E03A
:1001500090932701809127018823B1F283E50E94C3
:100160005E00D2CF1F920F920FB60F9211248F9381
:1001700081E0809326018F910F900FBE0F901F900A
:100180001895BF92CF92DF92EF92FF920F931F9339
:10019000CF93DF936B017A0195B19E7F95B90E9451
:1001A0003A03B82EC0E0D0E00AC086010C0F1D1F34
:1001B000F80180810E943A03F80180832196CE15D0
:1001C000DF0598F385B1816085B98B2DDF91CF91E3
:1001D0001F910F91FF90EF90DF90CF90BF90089507
:1001E00080620E94C10008950E94C10008950F938B
:1001F0001F93CF93DF931F92CDB7DEB7F894E9E654
:10020000F0E08081826080838DB381608DBB7894C3
:100210008AB180688AB984B1816084B985B181600E
:1002200085B98BB18F778BB90E9429032FEF81EEAF
:1002300094E0215080409040E1F700C000000FE3BF
:100240000093480141E050E068E471E080E00E94E2
:10025000F0001092480141E050E068E471E081E074
:100260000E94F00080EF8093480141E050E068E494
:1002700071E084E00E94F0001092480141E050E0FB
:1002800068E471E082E00E94F00084E78093480116
:1002900041E050E068E471E085E00E94F0008EE00B
:1002A0008093480141E050E068E471E086E00E94FC
:1002B000F00010E71093480141E050E068E471E07D
:1002C00087E00E94F0000093480141E050E068E4BC
:1002D00071E08CE10E94F00084E08093480141E0ED
:1002E00050E068E471E08DE10E94F000198340E085
:1002F00050E060E070E082EE0E94F00040E050E0EC
:1003000060E070E081EE0E94F00045E050E065E0C2
:1003100071E08AE00E94F00045E050E060E071E0AA
:1003200080E10E94F00041E050E0BE016F5F7F4F2E
:1003300082E00E94F00089818160898341E050E081
:10034000BE016F5F7F4F82E00E94F0000F90DF914F
:10035000CF911F910F9108951F93CF93DF931F9219
:10036000CDB7DEB7182F41E050E0BE016F5F7F4F81
:1003700080E00E94F400133071F128F4113059F03C
:100380001230E9F062C0153009F447C0D0F11630E0
:1003900009F447C05AC0898181FD57C082608093AB
:1003A000480141E050E068E471E080E00E94F00024
:1003B0008FE39FE10197F1F700C0000046C08981FB
:1003C0008D7F8093480141E050E068E471E080E077
:1003D0000E94F0003AC0898181608093480141E029
:1003E00050E068E471E080E00E94F00080E78093D4
:1003F000480141E050E068E471E087E00E94F000CD
:1004000024C089818E7F8093480141E050E068E4F8
:1004100071E080E00E94F00018C08BB18F778BB93B
:1004200014C089818E7F8093480141E050E068E4E8
:1004300071E080E00E94F0008BB180688BB987E5A5
:1004400092E00197F1F700C000000F90DF91CF918B
:100450001F91089583E00E94AC018BB180688BB935
:1004600087E592E00197F1F700C000000895CF9270
:10047000DF92EF92FF920F931F93CF93DF93CDB74D
:10048000DEB7A0970FB6F894DEBF0FBECDBF7C01DC
:1004900000E2CE010196FC01202F11922A95E9F786
:1004A000B7010E944003F70101900020E9F731975E
:1004B0001E2F1E1984E00E94AC0140E050E060E075
:1004C00070E082EE0E94F00040E050E060E070E0FA
:1004D00081EE0E94F0000093480141E050E068E4A2
:1004E00071E087E00E94F00041E050E068E471E0D4
:1004F00080E00E94F400809148018064809348016C
:1005000041E050E068E471E080E00E94F00085B1D5
:100510008E7F85B980EB0E9435030AC067018FEF9B
:10052000C81AD80AF70180810E943503102F76017E
:100530000FEF010F1111F2CF80E00E94350385B15A
:10054000816085B98BB180688BB9F0E5FA95F1F7D8
:100550008BB18F778BB941E050E068E471E087E0C0
:100560000E94F40007C041E050E068E471E087E0D9
:100570000E94F4008091480185FFF5CFCE010196DD
:100580009F938F938CE091E09F938F930E944703FA
:1005900041E050E068E471E080E00E94F400809166
:1005A00048018F7B8093480141E050E068E471E0AE
:1005B00080E00E94F0000E942A020F900F900F909E
:1005C0000F9081E0A0960FB6F894DEBF0FBECDBFAE
:1005D000DF91CF911F910F91FF90EF90DF90CF901F
:1005E000089580E2E8E2F1E0DF011D928A95E9F7E3
:1005F00041E050E068E471E080E60E94F400409140
:100600004801442341F050E04F5F5F4F68E271E0E2
:1006100081E60E94C10080912801882369F080E46E
:100620008093480141E050E068E471E087E00E9477
:10063000F00088E291E0089580E48093480141E071
:1006400050E068E471E087E00E94F0008EE191E004
:10065000089584B18F7E84B984B1886284B980E5BD
:100660008CBD8DB581608DBD08958EBD0DB407FE26
:10067000FDCF08958EBD0DB407FEFDCF8EB5089554
:10068000FB01DC0101900D920020E1F70895A0E04C
:10069000B0E0EDE4F3E00C94FE05AE014B5F5F4F7C
:1006A000FA0161917191AF0180914B0190914C01E0
:1006B0000E945D03E2E00C941A06ABE0B0E0E3E6D2
:1006C000F3E00C94EE056C017B018A01FC011782BA
:1006D0001682838181FFCCC1CE0101963C01F601D7
:1006E0009381F70193FD859193FF81917F01882389
:1006F00009F4BAC1853239F493FD859193FF819154
:100700007F01853229F4B60190E00E945405E7CFBD
:10071000912C212C312CFFE1F315D8F08B3279F09C
:1007200038F4803279F08332A1F4232D20611DC08A
:100730008D3261F0803369F4232D216016C0832D42
:100740008260382EE32DE4603E2E2AC0F32DF8603F
:100750001DC037FC2DC020ED280F2A3040F08E320E
:10076000B9F436FC81C1232D2064322E19C036FE27
:1007700006C08AE0989E200D1124922E11C0EAE056
:100780002E9E200D1124222EF32DF0623F2E08C044
:100790008C3621F4832D8068382E02C0883641F4CF
:1007A000F70193FD859193FF81917F018111B3CF73
:1007B000982F9F7D9554933028F40C5F1F4F9FE333
:1007C00099830DC0833631F0833771F0833509F09A
:1007D00059C021C0F801808189830E5F1F4F882492
:1007E0008394912C530113C02801F2E04F0E511C49
:1007F000F801A080B18036FE03C0692D70E002C010
:100800006FEF7FEFC5010E9449054C018201F32D76
:10081000FF773F2E16C0280122E0420E511CF8013E
:10082000A080B18036FE03C0692D70E002C06FEF7A
:100830007FEFC5010E943E054C01F32DF0683F2E6D
:10084000820133FC1BC0822D90E088169906B0F41B
:10085000B60180E290E00E9454052A94F4CFF5019D
:1008600037FC859137FE81915F01B60190E00E94CF
:10087000540521102A9421E0821A910881149104D0
:1008800071F7E8C0843611F0893641F5F80137FE7A
:1008900007C060817181828193810C5F1F4F08C006
:1008A00060817181072E000C880B990B0E5F1F4F22
:1008B000F32DFF763F2E97FF09C090958095709598
:1008C00061957F4F8F4F9F4FF0683F2E2AE030E0B9
:1008D000A3010E949005882E861845C0853731F403
:1008E000232D2F7EB22E2AE030E025C0932D997F54
:1008F000B92E8F36C1F018F4883579F0B5C080373D
:1009000019F0883721F0B0C0E92FE061BE2EB4FEA7
:100910000DC0FB2DF460BF2E09C034FE0AC0292F84
:100920002660B22E06C028E030E005C020E130E0AD
:1009300002C020E132E0F801B7FE07C0608171819A
:10094000828193810C5F1F4F06C06081718180E0BE
:1009500090E00E5F1F4FA3010E949005882E86181D
:10096000FB2DFF773F2E36FE0DC0232D2E7FA22EAE
:10097000891458F434FE0BC032FC09C0832D8E7EDE
:10098000A82E05C0B82CA32C03C0B82C01C0B92CCC
:10099000A4FE0FC0FE01E80DF11D8081803321F41B
:1009A0009A2D997EA92E09C0A2FE06C0B394B394D5
:1009B00004C08A2D867809F0B394A3FC11C0A0FE70
:1009C00006C0B21488F4280C922C9B180EC0B214E6
:1009D00060F4B60180E290E00E945405B394F7CF32
:1009E000B21418F42B1802C0982C212CA4FE10C0AD
:1009F000B60180E390E00E945405A2FE17C0A1FC5E
:100A000003C088E790E002C088E590E0B6010CC022
:100A10008A2D867859F0A1FE02C08BE201C080E2E7
:100A2000A7FC8DE2B60190E00E945405891438F4C9
:100A3000B60180E390E00E9454059A94F7CF8A941F
:100A4000F301E80DF11D8081B60190E00E9454058C
:100A50008110F5CF222009F442CEB60180E290E069
:100A60000E9454052A94F6CFF6018681978102C030
:100A70008FEF9FEF2B96E2E10C940A06FC010590A4
:100A8000615070400110D8F7809590958E0F9F1F90
:100A90000895FC016150704001900110D8F78095D5
:100AA00090958E0F9F1F08950F931F93CF93DF9301
:100AB000FB01238121FD03C08FEF9FEF2CC022FF9C
:100AC00016C046815781248135814217530744F46B
:100AD000A081B1819D012F5F3F4F318320838C9393
:100AE000268137812F5F3F4F3783268314C08B01C8
:100AF000EC01FB010084F185E02D0995892BE1F6DD
:100B0000D80116968D919C911797019617969C93F4
:100B10008E931697CE01DF91CF911F910F9108957B
:100B2000FA01AA27283051F1203181F1E8946F931E
:100B30006E7F6E5F7F4F8F4F9F4FAF4FB1E03ED0C4
:100B4000B4E03CD0670F781F891F9A1FA11D680F62
:100B5000791F8A1F911DA11D6A0F711D811D911D95
:100B6000A11D20D009F468943F912AE0269F11240A
:100B70003019305D3193DEF6CF010895462F47706E
:100B8000405D4193B3E00FD0C9F7F6CF462F4F70C9
:100B9000405D4A3318F0495D31FD4052419302D027
:100BA000A9F7EACFB4E0A6959795879577956795CD
:100BB000BA95C9F700976105710508959B01AC01CD
:100BC0000A2E06945795479537952795BA95C9F7F4
:100BD000620F731F841F951FA01D08952F923F92CF
:100BE0004F925F926F927F928F929F92AF92BF923D
:100BF000CF92DF92EF92FF920F931F93CF93DF93E9
:100C0000CDB7DEB7CA1BDB0B0FB6F894DEBF0FBE45
:100C1000CDBF09942A88398848885F846E847D8492
:100C20008C849B84AA84B984C884DF80EE80FD8094
:100C30000C811B81AA81B981CE0FD11D0FB6F8940A
:0E0C4000DEBF0FBECDBFED010895F894FFCFCB
:100C4E00E7E7E7E7E7E7E7E7E7E741004D657373B7
:100C5E006167652073656E743A2025730A006661BC
:060C6E00696C65640000E2
:00000001FF
