:020000020000FC
:10000000209A219A229A239824985598259A2D98D7
:1000100000E440E00C944100FCD06395623329F089
:10002000B43031F01B993AC0F7CFB39560E0F8CF08
:1000300060E0B0E070E080E000E423C0871301C01E
:1000400006C070E080E008E0B5D0D3D0F1CF00E882
:10005000B1D02D9AC8D02D98EBCF0937D1F0839528
:1000600010C00F37B1F083950CC00D3691F0839519
:1000700008C00F3671F0839504C0073751F083959F
:10008000DDCF98D01C9B16C04D9B17C01B9BC4CFC7
:10009000F8CF73958395853089F2F3CF60E0B0E0B7
:1000A0008030D9F28130E9F28230F9F2833009F3FD
:1000B000843019F34D99FECF03C01C99FECF03C0C5
:1000C0001C9904C0FDCF4D9904C0FDCF4D9904C0CB
:1000D000FDCF1C990AC0FDCF003421F04F3089F2CA
:1000E00043950CC00FE340E0CCCF003421F040300A
:1000F00041F24A9503C001E74FE0C3CF30E043131C
:1001000002C00FE3BECF31E0431303C006E00C94FE
:10011000410032E0431303C00BE50C94410033E08F
:10012000431303C00FE40C94410034E0431303C0B5
:1001300006E60C94410035E0431303C00DE60C9431
:10014000410036E0431303C00DE70C94410037E053
:10015000431303C007E00C94410038E0431303C08D
:100160000FE70C94410039E0431303C00FE60C94F1
:1001700041003AE0431303C007E70C9441003BE021
:10018000431303C00CE70C9441003CE0431303C04D
:1001900009E30C9441003DE0431303C00EE50C94C9
:1001A00041003EE0431303C009E70C94410001E71E
:1001B0000C9441000F931F931FB71F9318E0001F6B
:1001C00010F0289801C0289A1ED01A95C1F71ED0A9
:1001D0001F911FBF1F910F9108951BD06395643627
:1001E000E1F760E00895F9DFF8DFF7DFF6DFF5DF2C
:1001F0000895F3DFF2DFF1DFF0DFEFDFEEDFEDDFB9
:10020000ECDFEBDF0895299A299808952A9A2A9815
:10021000089554E656BD55E055BD55B350FFFDCF8A
:0A02200050E055BD51E055BB0895B4
:00000001FF
