S0150000546865726D52656365697665722E73726563DA
S11300000C9434000C9446000C9446000C94460066
S11300100C9446000C9446000C9446000C94460044
S11300200C9446000C9446000C9446000C94460034
S11300300C9446000C9446000C9446000C94460024
S11300400C9446000C9446000C9446000C94460014
S11300500C9446000C9446000C9446000C94460004
S11300600C9446000C94460011241FBECFEFD8E038
S1130070DEBFCDBF21E0A0E0B1E001C01D92A032FF
S1130080B207E1F70E9494010C94BE010C940000A5
S11300909093C5008093C40088E18093C1008EE0F2
S11300A08093C20008959091C00095FFFCCF809387
S11300B0C600089584B1886284B984B18F7E84B9FE
S11300C08AB180638AB98CB580658CBD8BB180623E
S11300D08BB98BB18F7D8BB908958EBD0DB407FE9E
S11300E0FDCF8EB5089593E09A95F1F700009BB18A
S11300F09F7D9BB993E09A95F1F700000E946D00F3
S113010083E08A95F1F700008FEF0E946D0093E081
S11301109A95F1F700009BB190629BB90895CF9234
S1130120DF92FF920F931F93CF93DF93182FF62E36
S11301306A01022F813011F480E2F80E83E08A957F
S1130140F1F700008BB18F7D8BB983E08A95F1F7CD
S1130150000080E28F0D0E946D0083E08A95F1F724
S11301600000C0E0D0E01CC011110FC080EAF816F6
S113017061F08FEF0E946D00FE01E050FF4F80831D
S113018083E08A95F1F700000AC0F601EC0FFD1F29
S113019080810E946D0083E08A95F1F7000021962A
S11301A0802F90E0C817D907FCF28BB180628BB91D
S11301B080E091E0DF91CF911F910F91FF90DF904C
S11301C0CF9008951F93CF93DF9300D000D01F9258
S11301D0CDB7DEB787EA91E60197F1F700C00000DA
S11301E011E0198321E0AE014F5F5F4F61E081E0D0
S11301F00E948F008FE2898321E0AE014F5F5F4F41
S113020064E081E00E948F00198321E0AE014F5F1A
S11302105F4F62E081E00E948F0083E0898321E0E8
S1130220AE014F5F5F4F63E081E00E948F0019834E
S113023021E0AE014F5F5F4F66E081E00E948F00D6
S113024080E090E009C0E1E0F0E0EC0FFD1FE80F72
S1130250F91F22E12083019685309105A4F325E05E
S1130260AE014F5F5F4F6AE081E00E948F0080E043
S113027090E009C0E1E0F0E0EC0FFD1FE80FF91F8A
S113028022E12083019685309105A4F325E0AE0197
S11302904F5F5F4F60E181E00E948F0085E08983BA
S11302A021E0AE014F5F5F4F61E181E00E948F006A
S11302B087EA91E60197F1F700C000000F900F90D4
S11302C00F900F900F90DF91CF911F9108958BB1F4
S11302D080628BB92FE38DE093E021508040904001
S11302E0E1F700C000008BB18F7D8BB9089583E0E6
S11302F08A95F1F700008BB18F7D8BB983E08A95E5
S1130300F1F7000087E20E946D0083E08A95F1F71F
S1130310000080E70E946D0083E08A95F1F70000F9
S11303208BB180628BB9089587E690E00E94480003
S113033084E40E9453000E945A0080E50E94530006
S11303400E94E20083E50E9453000E94770187E047
S11303500E9473000E9453000E94670187E00E947C
S1130360730086FFF2CF21E0AE0161E680E00E94D7
S11303708F00EC0188810E945300E7CFF894FFCFEF
S9030000FC
