:020000020000FC
:10000000209A219A229A2398249A259A0FE332D093
:10001000FFCF2A9A2A9808952B9A2B9808950F3388
:10002000A1F00630A1F00B35A1F00F34A1F0063697
:10003000A1F00D36A1F00D37A1F00730A1F00F3778
:10004000A1F0073601F00FE3E3CF06E0E1CF0BE5C7
:10005000DFCF0FE4DDCF06E6DBCF0DE6D9CF0DE72E
:10006000D7CF07E0D5CF0FE7D3CF07E6D1CF1B9986
:10007000D6CFFDCF0F931F931FB71F9318E0001F1C
:1000800010F0299801C0299AC4DF1A95C1F7C4DF7E
:100090001F911FBF1F910F910895E8E7F8E2D1E388
:0C00A0000000DA95E9F73197D1F70895D8
:00000001FF
